{
  "_format": "hh-sol-artifact-1",
  "contractName": "DividendDistributor",
  "sourceName": "contracts/token.sol",
  "abi": [
    {
      "inputs": [
        {
          "internalType": "address",
          "name": "_router",
          "type": "address"
        }
      ],
      "stateMutability": "nonpayable",
      "type": "constructor"
    },
    {
      "inputs": [],
      "name": "claimDividend",
      "outputs": [],
      "stateMutability": "nonpayable",
      "type": "function"
    },
    {
      "inputs": [],
      "name": "deposit",
      "outputs": [],
      "stateMutability": "payable",
      "type": "function"
    },
    {
      "inputs": [],
      "name": "dividendsPerShare",
      "outputs": [
        {
          "internalType": "uint256",
          "name": "",
          "type": "uint256"
        }
      ],
      "stateMutability": "view",
      "type": "function"
    },
    {
      "inputs": [],
      "name": "dividendsPerShareAccuracyFactor",
      "outputs": [
        {
          "internalType": "uint256",
          "name": "",
          "type": "uint256"
        }
      ],
      "stateMutability": "view",
      "type": "function"
    },
    {
      "inputs": [
        {
          "internalType": "address",
          "name": "shareholder",
          "type": "address"
        }
      ],
      "name": "getUnpaidEarnings",
      "outputs": [
        {
          "internalType": "uint256",
          "name": "",
          "type": "uint256"
        }
      ],
      "stateMutability": "view",
      "type": "function"
    },
    {
      "inputs": [],
      "name": "minDistribution",
      "outputs": [
        {
          "internalType": "uint256",
          "name": "",
          "type": "uint256"
        }
      ],
      "stateMutability": "view",
      "type": "function"
    },
    {
      "inputs": [],
      "name": "minPeriod",
      "outputs": [
        {
          "internalType": "uint256",
          "name": "",
          "type": "uint256"
        }
      ],
      "stateMutability": "view",
      "type": "function"
    },
    {
      "inputs": [
        {
          "internalType": "uint256",
          "name": "gas",
          "type": "uint256"
        }
      ],
      "name": "process",
      "outputs": [],
      "stateMutability": "nonpayable",
      "type": "function"
    },
    {
      "inputs": [
        {
          "internalType": "uint256",
          "name": "_minPeriod",
          "type": "uint256"
        },
        {
          "internalType": "uint256",
          "name": "_minDistribution",
          "type": "uint256"
        }
      ],
      "name": "setDistributionCriteria",
      "outputs": [],
      "stateMutability": "nonpayable",
      "type": "function"
    },
    {
      "inputs": [
        {
          "internalType": "address",
          "name": "shareholder",
          "type": "address"
        },
        {
          "internalType": "uint256",
          "name": "amount",
          "type": "uint256"
        }
      ],
      "name": "setShare",
      "outputs": [],
      "stateMutability": "nonpayable",
      "type": "function"
    },
    {
      "inputs": [
        {
          "internalType": "address",
          "name": "",
          "type": "address"
        }
      ],
      "name": "shares",
      "outputs": [
        {
          "internalType": "uint256",
          "name": "amount",
          "type": "uint256"
        },
        {
          "internalType": "uint256",
          "name": "totalExcluded",
          "type": "uint256"
        },
        {
          "internalType": "uint256",
          "name": "totalRealised",
          "type": "uint256"
        }
      ],
      "stateMutability": "view",
      "type": "function"
    },
    {
      "inputs": [],
      "name": "totalDistributed",
      "outputs": [
        {
          "internalType": "uint256",
          "name": "",
          "type": "uint256"
        }
      ],
      "stateMutability": "view",
      "type": "function"
    },
    {
      "inputs": [],
      "name": "totalDividends",
      "outputs": [
        {
          "internalType": "uint256",
          "name": "",
          "type": "uint256"
        }
      ],
      "stateMutability": "view",
      "type": "function"
    },
    {
      "inputs": [],
      "name": "totalShares",
      "outputs": [
        {
          "internalType": "uint256",
          "name": "",
          "type": "uint256"
        }
      ],
      "stateMutability": "view",
      "type": "function"
    }
  ],
  "bytecode": "0x6080604052600180546001600160a01b0319908116738076c74c5e3f5852037f31ff0093eeb8c8add8d3179091556002805490911673bb4cdb9cbd36b01bd1cbaebf2de08d9173bc095c1790556ec097ce7bc90715b34b9f1000000000600c55610e10600d55670de0b6b3a7640000600e5534801561007d57600080fd5b50604051610f14380380610f1483398101604081905261009c916100f6565b6001600160a01b0381166100c4577310ed43c718714eb63d5aa57b78b54704e256024e6100c6565b805b600380546001600160a01b03929092166001600160a01b0319928316179055600080549091163317905550610124565b600060208284031215610107578081fd5b81516001600160a01b038116811461011d578182fd5b9392505050565b610de1806101336000396000f3fe6080604052600436106100dd5760003560e01c8063ce7c2ac21161007f578063efca2eed11610059578063efca2eed146101fa578063f0fc6bca1461020f578063ffb2c47914610224578063ffd49c8414610244576100dd565b8063ce7c2ac2146101ae578063d0e30db0146101dd578063e2d2e219146101e5576100dd565b80632d48e896116100bb5780632d48e8961461014f5780633a98ef391461016f5780634fab0ae814610184578063997664d714610199576100dd565b806311ce023d146100e257806314b6ca961461010d57806328fd31981461012f575b600080fd5b3480156100ee57600080fd5b506100f7610259565b6040516101049190610ced565b60405180910390f35b34801561011957600080fd5b5061012d610128366004610bbd565b61025f565b005b34801561013b57600080fd5b506100f761014a366004610ba3565b610384565b34801561015b57600080fd5b5061012d61016a366004610c36565b610410565b34801561017b57600080fd5b506100f7610432565b34801561019057600080fd5b506100f7610438565b3480156101a557600080fd5b506100f761043e565b3480156101ba57600080fd5b506101ce6101c9366004610ba3565b610444565b60405161010493929190610cf6565b61012d610465565b3480156101f157600080fd5b506100f76106d8565b34801561020657600080fd5b506100f76106de565b34801561021b57600080fd5b5061012d6106e4565b34801561023057600080fd5b5061012d61023f366004610c06565b6106ef565b34801561025057600080fd5b506100f761080e565b600c5481565b6000546001600160a01b0316331461027657600080fd5b6001600160a01b0382166000908152600760205260409020541561029d5761029d82610814565b6000811180156102c357506001600160a01b038216600090815260076020526040902054155b156102d6576102d18261093f565b610309565b801580156102fb57506001600160a01b03821660009081526007602052604090205415155b1561030957610309826109a0565b6001600160a01b03821660009081526007602052604090205460085461033a91839161033491610aed565b90610b00565b6008556001600160a01b038216600090815260076020526040902081905561036181610b0c565b6001600160a01b0390921660009081526007602052604090206001019190915550565b6001600160a01b0381166000908152600760205260408120546103a95750600061040b565b6001600160a01b0382166000908152600760205260408120546103cb90610b0c565b6001600160a01b0384166000908152600760205260409020600101549091508082116103fc5760009250505061040b565b6104068282610aed565b925050505b919050565b6000546001600160a01b0316331461042757600080fd5b600d91909155600e55565b60085481565b600e5481565b60095481565b60076020526000908152604090208054600182015460029092015490919083565b6000546001600160a01b0316331461047c57600080fd5b6001546040516370a0823160e01b81526000916001600160a01b0316906370a08231906104ad903090600401610c57565b60206040518083038186803b1580156104c557600080fd5b505afa1580156104d9573d6000803e3d6000fd5b505050506040513d601f19601f820116820180604052508101906104fd9190610c1e565b6040805160028082526060820183529293506000929091602083019080368337505060025482519293506001600160a01b03169183915060009061055157634e487b7160e01b600052603260045260246000fd5b6001600160a01b039283166020918202929092010152600180548351921691839190811061058f57634e487b7160e01b600052603260045260246000fd5b6001600160a01b03928316602091820292909201015260035460405163b6f9de9560e01b815291169063b6f9de959034906105d590600090869030904290600401610c84565b6000604051808303818588803b1580156105ee57600080fd5b505af1158015610602573d6000803e3d6000fd5b50506001546040516370a0823160e01b81526000945061069693508692506001600160a01b03909116906370a0823190610640903090600401610c57565b60206040518083038186803b15801561065857600080fd5b505afa15801561066c573d6000803e3d6000fd5b505050506040513d601f19601f820116820180604052508101906106909190610c1e565b90610aed565b6009549091506106a69082610b00565b600955600854600c546106d0916106c7916106c19085610b2f565b90610b3b565b600b5490610b00565b600b55505050565b600b5481565b600a5481565b6106ed33610814565b565b6000546001600160a01b0316331461070657600080fd5b60045480610714575061080b565b6000805a905060005b848310801561072b57508381105b156108065783600f541061073f576000600f555b61077f6004600f548154811061076557634e487b7160e01b600052603260045260246000fd5b6000918252602090912001546001600160a01b0316610b47565b156107c4576107c46004600f54815481106107aa57634e487b7160e01b600052603260045260246000fd5b6000918252602090912001546001600160a01b0316610814565b6107d96107d25a8490610aed565b8490610b00565b92505a600f805491935060006107ee83610d7a565b919050555080806107fe90610d7a565b91505061071d565b505050505b50565b600d5481565b6001600160a01b0381166000908152600760205260409020546108365761080b565b600061084182610384565b9050801561093b57600a546108569082610b00565b600a5560015460405163a9059cbb60e01b81526001600160a01b039091169063a9059cbb9061088b9085908590600401610c6b565b602060405180830381600087803b1580156108a557600080fd5b505af11580156108b9573d6000803e3d6000fd5b505050506040513d601f19601f820116820180604052508101906108dd9190610be6565b506001600160a01b038216600090815260066020908152604080832042905560079091529020600201546109119082610b00565b6001600160a01b038316600090815260076020526040902060028101919091555461036190610b0c565b5050565b600480546001600160a01b039092166000818152600560205260408120849055600184018355919091527f8a35acfbc15ff81a39ae7d344fd709f28e8600b4aa8c65c6b64bfe7fe36bd19b90910180546001600160a01b0319169091179055565b600480546109b090600190610d63565b815481106109ce57634e487b7160e01b600052603260045260246000fd5b60009182526020808320909101546001600160a01b0384811684526005909252604090922054600480549290931692918110610a1a57634e487b7160e01b600052603260045260246000fd5b600091825260208083209190910180546001600160a01b0319166001600160a01b03948516179055918316815260059182905260408120546004805491939291610a6690600190610d63565b81548110610a8457634e487b7160e01b600052603260045260246000fd5b60009182526020808320909101546001600160a01b031683528201929092526040019020556004805480610ac857634e487b7160e01b600052603160045260246000fd5b600082815260209020810160001990810180546001600160a01b031916905501905550565b6000610af98284610d63565b9392505050565b6000610af98284610d0c565b6000610b29600c546106c1600b5485610b2f90919063ffffffff16565b92915050565b6000610af98284610d44565b6000610af98284610d24565b600d546001600160a01b03821660009081526006602052604081205490914291610b719190610d0c565b108015610b295750600e54610b8583610384565b1192915050565b80356001600160a01b038116811461040b57600080fd5b600060208284031215610bb4578081fd5b610af982610b8c565b60008060408385031215610bcf578081fd5b610bd883610b8c565b946020939093013593505050565b600060208284031215610bf7578081fd5b81518015158114610af9578182fd5b600060208284031215610c17578081fd5b5035919050565b600060208284031215610c2f578081fd5b5051919050565b60008060408385031215610c48578182fd5b50508035926020909101359150565b6001600160a01b0391909116815260200190565b6001600160a01b03929092168252602082015260400190565b600060808201868352602060808185015281875180845260a0860191508289019350845b81811015610ccd5784516001600160a01b031683529383019391830191600101610ca8565b50506001600160a01b039690961660408501525050506060015292915050565b90815260200190565b9283526020830191909152604082015260600190565b60008219821115610d1f57610d1f610d95565b500190565b600082610d3f57634e487b7160e01b81526012600452602481fd5b500490565b6000816000190483118215151615610d5e57610d5e610d95565b500290565b600082821015610d7557610d75610d95565b500390565b6000600019821415610d8e57610d8e610d95565b5060010190565b634e487b7160e01b600052601160045260246000fdfea2646970667358221220b15eb561116304bdc60516e35d0afdd41d7aecffa5b11bb774ac8b01711a498e64736f6c63430008000033",
  "linkReferences": {},
  "deployedLinkReferences": {}
}