{
  "_format": "hh-sol-artifact-1",
  "contractName": "SafeEarn",
  "sourceName": "contracts/token.sol",
  "abi": [
    {
      "inputs": [
        {
          "internalType": "address",
          "name": "_dexRouter",
          "type": "address"
        }
      ],
      "stateMutability": "nonpayable",
      "type": "constructor"
    },
    {
      "anonymous": false,
      "inputs": [
        {
          "indexed": true,
          "internalType": "address",
          "name": "owner",
          "type": "address"
        },
        {
          "indexed": true,
          "internalType": "address",
          "name": "spender",
          "type": "address"
        },
        {
          "indexed": false,
          "internalType": "uint256",
          "name": "value",
          "type": "uint256"
        }
      ],
      "name": "Approval",
      "type": "event"
    },
    {
      "anonymous": false,
      "inputs": [
        {
          "indexed": false,
          "internalType": "uint256",
          "name": "amountBNB",
          "type": "uint256"
        },
        {
          "indexed": false,
          "internalType": "uint256",
          "name": "amountBOG",
          "type": "uint256"
        }
      ],
      "name": "AutoLiquify",
      "type": "event"
    },
    {
      "anonymous": false,
      "inputs": [
        {
          "indexed": false,
          "internalType": "uint256",
          "name": "duration",
          "type": "uint256"
        }
      ],
      "name": "BuybackMultiplierActive",
      "type": "event"
    },
    {
      "anonymous": false,
      "inputs": [
        {
          "indexed": false,
          "internalType": "address",
          "name": "owner",
          "type": "address"
        }
      ],
      "name": "OwnershipTransferred",
      "type": "event"
    },
    {
      "anonymous": false,
      "inputs": [
        {
          "indexed": true,
          "internalType": "address",
          "name": "from",
          "type": "address"
        },
        {
          "indexed": true,
          "internalType": "address",
          "name": "to",
          "type": "address"
        },
        {
          "indexed": false,
          "internalType": "uint256",
          "name": "value",
          "type": "uint256"
        }
      ],
      "name": "Transfer",
      "type": "event"
    },
    {
      "inputs": [],
      "name": "MASK",
      "outputs": [
        {
          "internalType": "uint256",
          "name": "",
          "type": "uint256"
        }
      ],
      "stateMutability": "view",
      "type": "function"
    },
    {
      "inputs": [],
      "name": "WBNB",
      "outputs": [
        {
          "internalType": "address",
          "name": "",
          "type": "address"
        }
      ],
      "stateMutability": "view",
      "type": "function"
    },
    {
      "inputs": [],
      "name": "_maxTxAmount",
      "outputs": [
        {
          "internalType": "uint256",
          "name": "",
          "type": "uint256"
        }
      ],
      "stateMutability": "view",
      "type": "function"
    },
    {
      "inputs": [
        {
          "internalType": "address",
          "name": "holder",
          "type": "address"
        },
        {
          "internalType": "address",
          "name": "spender",
          "type": "address"
        }
      ],
      "name": "allowance",
      "outputs": [
        {
          "internalType": "uint256",
          "name": "",
          "type": "uint256"
        }
      ],
      "stateMutability": "view",
      "type": "function"
    },
    {
      "inputs": [
        {
          "internalType": "address",
          "name": "spender",
          "type": "address"
        },
        {
          "internalType": "uint256",
          "name": "amount",
          "type": "uint256"
        }
      ],
      "name": "approve",
      "outputs": [
        {
          "internalType": "bool",
          "name": "",
          "type": "bool"
        }
      ],
      "stateMutability": "nonpayable",
      "type": "function"
    },
    {
      "inputs": [
        {
          "internalType": "address",
          "name": "spender",
          "type": "address"
        }
      ],
      "name": "approveMax",
      "outputs": [
        {
          "internalType": "bool",
          "name": "",
          "type": "bool"
        }
      ],
      "stateMutability": "nonpayable",
      "type": "function"
    },
    {
      "inputs": [
        {
          "internalType": "address",
          "name": "adr",
          "type": "address"
        }
      ],
      "name": "authorize",
      "outputs": [],
      "stateMutability": "nonpayable",
      "type": "function"
    },
    {
      "inputs": [],
      "name": "autoBuybackEnabled",
      "outputs": [
        {
          "internalType": "bool",
          "name": "",
          "type": "bool"
        }
      ],
      "stateMutability": "view",
      "type": "function"
    },
    {
      "inputs": [],
      "name": "autoLiquidityReceiver",
      "outputs": [
        {
          "internalType": "address",
          "name": "",
          "type": "address"
        }
      ],
      "stateMutability": "view",
      "type": "function"
    },
    {
      "inputs": [
        {
          "internalType": "address",
          "name": "account",
          "type": "address"
        }
      ],
      "name": "balanceOf",
      "outputs": [
        {
          "internalType": "uint256",
          "name": "",
          "type": "uint256"
        }
      ],
      "stateMutability": "view",
      "type": "function"
    },
    {
      "inputs": [],
      "name": "clearBuybackMultiplier",
      "outputs": [],
      "stateMutability": "nonpayable",
      "type": "function"
    },
    {
      "inputs": [],
      "name": "decimals",
      "outputs": [
        {
          "internalType": "uint8",
          "name": "",
          "type": "uint8"
        }
      ],
      "stateMutability": "pure",
      "type": "function"
    },
    {
      "inputs": [],
      "name": "distributorAddress",
      "outputs": [
        {
          "internalType": "address",
          "name": "",
          "type": "address"
        }
      ],
      "stateMutability": "view",
      "type": "function"
    },
    {
      "inputs": [],
      "name": "getCirculatingSupply",
      "outputs": [
        {
          "internalType": "uint256",
          "name": "",
          "type": "uint256"
        }
      ],
      "stateMutability": "view",
      "type": "function"
    },
    {
      "inputs": [
        {
          "internalType": "uint256",
          "name": "accuracy",
          "type": "uint256"
        }
      ],
      "name": "getLiquidityBacking",
      "outputs": [
        {
          "internalType": "uint256",
          "name": "",
          "type": "uint256"
        }
      ],
      "stateMutability": "view",
      "type": "function"
    },
    {
      "inputs": [],
      "name": "getMultipliedFee",
      "outputs": [
        {
          "internalType": "uint256",
          "name": "",
          "type": "uint256"
        }
      ],
      "stateMutability": "view",
      "type": "function"
    },
    {
      "inputs": [],
      "name": "getOwner",
      "outputs": [
        {
          "internalType": "address",
          "name": "",
          "type": "address"
        }
      ],
      "stateMutability": "view",
      "type": "function"
    },
    {
      "inputs": [
        {
          "internalType": "bool",
          "name": "selling",
          "type": "bool"
        }
      ],
      "name": "getTotalFee",
      "outputs": [
        {
          "internalType": "uint256",
          "name": "",
          "type": "uint256"
        }
      ],
      "stateMutability": "view",
      "type": "function"
    },
    {
      "inputs": [
        {
          "internalType": "address",
          "name": "adr",
          "type": "address"
        }
      ],
      "name": "isAuthorized",
      "outputs": [
        {
          "internalType": "bool",
          "name": "",
          "type": "bool"
        }
      ],
      "stateMutability": "view",
      "type": "function"
    },
    {
      "inputs": [
        {
          "internalType": "uint256",
          "name": "target",
          "type": "uint256"
        },
        {
          "internalType": "uint256",
          "name": "accuracy",
          "type": "uint256"
        }
      ],
      "name": "isOverLiquified",
      "outputs": [
        {
          "internalType": "bool",
          "name": "",
          "type": "bool"
        }
      ],
      "stateMutability": "view",
      "type": "function"
    },
    {
      "inputs": [
        {
          "internalType": "address",
          "name": "account",
          "type": "address"
        }
      ],
      "name": "isOwner",
      "outputs": [
        {
          "internalType": "bool",
          "name": "",
          "type": "bool"
        }
      ],
      "stateMutability": "view",
      "type": "function"
    },
    {
      "inputs": [],
      "name": "launch",
      "outputs": [],
      "stateMutability": "nonpayable",
      "type": "function"
    },
    {
      "inputs": [],
      "name": "launchedAt",
      "outputs": [
        {
          "internalType": "uint256",
          "name": "",
          "type": "uint256"
        }
      ],
      "stateMutability": "view",
      "type": "function"
    },
    {
      "inputs": [],
      "name": "launchedAtTimestamp",
      "outputs": [
        {
          "internalType": "uint256",
          "name": "",
          "type": "uint256"
        }
      ],
      "stateMutability": "view",
      "type": "function"
    },
    {
      "inputs": [],
      "name": "marketingFeeReceiver",
      "outputs": [
        {
          "internalType": "address",
          "name": "",
          "type": "address"
        }
      ],
      "stateMutability": "view",
      "type": "function"
    },
    {
      "inputs": [],
      "name": "name",
      "outputs": [
        {
          "internalType": "string",
          "name": "",
          "type": "string"
        }
      ],
      "stateMutability": "pure",
      "type": "function"
    },
    {
      "inputs": [],
      "name": "pair",
      "outputs": [
        {
          "internalType": "address",
          "name": "",
          "type": "address"
        }
      ],
      "stateMutability": "view",
      "type": "function"
    },
    {
      "inputs": [],
      "name": "router",
      "outputs": [
        {
          "internalType": "contract IDEXRouter",
          "name": "",
          "type": "address"
        }
      ],
      "stateMutability": "view",
      "type": "function"
    },
    {
      "inputs": [
        {
          "internalType": "bool",
          "name": "_enabled",
          "type": "bool"
        },
        {
          "internalType": "uint256",
          "name": "_cap",
          "type": "uint256"
        },
        {
          "internalType": "uint256",
          "name": "_amount",
          "type": "uint256"
        },
        {
          "internalType": "uint256",
          "name": "_period",
          "type": "uint256"
        }
      ],
      "name": "setAutoBuybackSettings",
      "outputs": [],
      "stateMutability": "nonpayable",
      "type": "function"
    },
    {
      "inputs": [
        {
          "internalType": "uint256",
          "name": "numerator",
          "type": "uint256"
        },
        {
          "internalType": "uint256",
          "name": "denominator",
          "type": "uint256"
        },
        {
          "internalType": "uint256",
          "name": "length",
          "type": "uint256"
        }
      ],
      "name": "setBuybackMultiplierSettings",
      "outputs": [],
      "stateMutability": "nonpayable",
      "type": "function"
    },
    {
      "inputs": [
        {
          "internalType": "uint256",
          "name": "_minPeriod",
          "type": "uint256"
        },
        {
          "internalType": "uint256",
          "name": "_minDistribution",
          "type": "uint256"
        }
      ],
      "name": "setDistributionCriteria",
      "outputs": [],
      "stateMutability": "nonpayable",
      "type": "function"
    },
    {
      "inputs": [
        {
          "internalType": "uint256",
          "name": "gas",
          "type": "uint256"
        }
      ],
      "name": "setDistributorSettings",
      "outputs": [],
      "stateMutability": "nonpayable",
      "type": "function"
    },
    {
      "inputs": [
        {
          "internalType": "address",
          "name": "_autoLiquidityReceiver",
          "type": "address"
        },
        {
          "internalType": "address",
          "name": "_marketingFeeReceiver",
          "type": "address"
        }
      ],
      "name": "setFeeReceivers",
      "outputs": [],
      "stateMutability": "nonpayable",
      "type": "function"
    },
    {
      "inputs": [
        {
          "internalType": "uint256",
          "name": "_liquidityFee",
          "type": "uint256"
        },
        {
          "internalType": "uint256",
          "name": "_buybackFee",
          "type": "uint256"
        },
        {
          "internalType": "uint256",
          "name": "_reflectionFee",
          "type": "uint256"
        },
        {
          "internalType": "uint256",
          "name": "_marketingFee",
          "type": "uint256"
        },
        {
          "internalType": "uint256",
          "name": "_feeDenominator",
          "type": "uint256"
        }
      ],
      "name": "setFees",
      "outputs": [],
      "stateMutability": "nonpayable",
      "type": "function"
    },
    {
      "inputs": [
        {
          "internalType": "address",
          "name": "holder",
          "type": "address"
        },
        {
          "internalType": "bool",
          "name": "exempt",
          "type": "bool"
        }
      ],
      "name": "setIsDividendExempt",
      "outputs": [],
      "stateMutability": "nonpayable",
      "type": "function"
    },
    {
      "inputs": [
        {
          "internalType": "address",
          "name": "holder",
          "type": "address"
        },
        {
          "internalType": "bool",
          "name": "exempt",
          "type": "bool"
        }
      ],
      "name": "setIsFeeExempt",
      "outputs": [],
      "stateMutability": "nonpayable",
      "type": "function"
    },
    {
      "inputs": [
        {
          "internalType": "address",
          "name": "holder",
          "type": "address"
        },
        {
          "internalType": "bool",
          "name": "exempt",
          "type": "bool"
        }
      ],
      "name": "setIsTxLimitExempt",
      "outputs": [],
      "stateMutability": "nonpayable",
      "type": "function"
    },
    {
      "inputs": [
        {
          "internalType": "bool",
          "name": "_enabled",
          "type": "bool"
        },
        {
          "internalType": "uint256",
          "name": "_amount",
          "type": "uint256"
        }
      ],
      "name": "setSwapBackSettings",
      "outputs": [],
      "stateMutability": "nonpayable",
      "type": "function"
    },
    {
      "inputs": [
        {
          "internalType": "uint256",
          "name": "_target",
          "type": "uint256"
        },
        {
          "internalType": "uint256",
          "name": "_denominator",
          "type": "uint256"
        }
      ],
      "name": "setTargetLiquidity",
      "outputs": [],
      "stateMutability": "nonpayable",
      "type": "function"
    },
    {
      "inputs": [
        {
          "internalType": "uint256",
          "name": "amount",
          "type": "uint256"
        }
      ],
      "name": "setTxLimit",
      "outputs": [],
      "stateMutability": "nonpayable",
      "type": "function"
    },
    {
      "inputs": [],
      "name": "swapEnabled",
      "outputs": [
        {
          "internalType": "bool",
          "name": "",
          "type": "bool"
        }
      ],
      "stateMutability": "view",
      "type": "function"
    },
    {
      "inputs": [],
      "name": "swapThreshold",
      "outputs": [
        {
          "internalType": "uint256",
          "name": "",
          "type": "uint256"
        }
      ],
      "stateMutability": "view",
      "type": "function"
    },
    {
      "inputs": [],
      "name": "symbol",
      "outputs": [
        {
          "internalType": "string",
          "name": "",
          "type": "string"
        }
      ],
      "stateMutability": "pure",
      "type": "function"
    },
    {
      "inputs": [],
      "name": "totalSupply",
      "outputs": [
        {
          "internalType": "uint256",
          "name": "",
          "type": "uint256"
        }
      ],
      "stateMutability": "view",
      "type": "function"
    },
    {
      "inputs": [
        {
          "internalType": "address",
          "name": "recipient",
          "type": "address"
        },
        {
          "internalType": "uint256",
          "name": "amount",
          "type": "uint256"
        }
      ],
      "name": "transfer",
      "outputs": [
        {
          "internalType": "bool",
          "name": "",
          "type": "bool"
        }
      ],
      "stateMutability": "nonpayable",
      "type": "function"
    },
    {
      "inputs": [
        {
          "internalType": "address",
          "name": "sender",
          "type": "address"
        },
        {
          "internalType": "address",
          "name": "recipient",
          "type": "address"
        },
        {
          "internalType": "uint256",
          "name": "amount",
          "type": "uint256"
        }
      ],
      "name": "transferFrom",
      "outputs": [
        {
          "internalType": "bool",
          "name": "",
          "type": "bool"
        }
      ],
      "stateMutability": "nonpayable",
      "type": "function"
    },
    {
      "inputs": [
        {
          "internalType": "address payable",
          "name": "adr",
          "type": "address"
        }
      ],
      "name": "transferOwnership",
      "outputs": [],
      "stateMutability": "nonpayable",
      "type": "function"
    },
    {
      "inputs": [
        {
          "internalType": "uint256",
          "name": "amount",
          "type": "uint256"
        },
        {
          "internalType": "bool",
          "name": "triggerBuybackMultiplier",
          "type": "bool"
        }
      ],
      "name": "triggerZeusBuyback",
      "outputs": [],
      "stateMutability": "nonpayable",
      "type": "function"
    },
    {
      "inputs": [
        {
          "internalType": "address",
          "name": "adr",
          "type": "address"
        }
      ],
      "name": "unauthorize",
      "outputs": [],
      "stateMutability": "nonpayable",
      "type": "function"
    },
    {
      "stateMutability": "payable",
      "type": "receive"
    }
  ],
  "bytecode": "0x6080604052600280546001600160a01b0319908116738076c74c5e3f5852037f31ff0093eeb8c8add8d31790915560038054821673bb4cdb9cbd36b01bd1cbaebf2de08d9173bc095c17905560048054821661dead9081179091556005805483169055600680549092161790556200007a6009600a62000646565b6200008d9066038d7ea4c6800062000731565b600755620000ae610190600754620004e960201b620013911790919060201c565b6008556064600e819055610190600f556102bc60105560c8601181905561057860125561271060135560196016556017829055601c55601d55610708601f556020805460ff199081169091556207a120602955602a805490911660011790556007546200011f906107d090620005d8565b602b553480156200012f57600080fd5b5060405162003ac638038062003ac6833981016040819052620001529162000578565b600080546001600160a01b0319908116339081178355825260016020818152604093849020805460ff1916909217909155601880546001600160a01b03868116919094161790819055835163c45a015560e01b8152935192169263c45a01559260048083019392829003018186803b158015620001ce57600080fd5b505afa158015620001e3573d6000803e3d6000fd5b505050506040513d601f19601f8201168201806040525081019062000209919062000578565b6003546040516364e329cb60e11b81526001600160a01b039283169263c9c65396926200023e929116903090600401620005b5565b602060405180830381600087803b1580156200025957600080fd5b505af11580156200026e573d6000803e3d6000fd5b505050506040513d601f19601f8201168201806040525081019062000294919062000578565b601980546001600160a01b0319166001600160a01b03928316179055600754306000908152600a6020908152604080832060188054871685529083529281902093909355905482516315ab88c960e31b8152925193169263ad5c4648926004808201939291829003018186803b1580156200030e57600080fd5b505afa15801562000323573d6000803e3d6000fd5b505050506040513d601f19601f8201168201806040525081019062000349919062000578565b600380546001600160a01b0319166001600160a01b0392909216919091179055604051819062000379906200056a565b620003859190620005a1565b604051809103906000f080158015620003a2573d6000803e3d6000fd5b50602780546001600160a01b039283166001600160a01b0319918216179182905560288054821692841692909217909155336000818152600b60209081526040808320805460ff199081166001908117909255600c8452828520805482168317905560195488168552600d8452828520805482168317905530855282852080548216831790556004549097168452818420805488168217905584845260219092529091208054909416179092556014805482168317905560158054909116909117905560075462000475908290620004fe565b5060195460075462000491916001600160a01b031690620004fe565b506007543360008181526009602052604080822084905551919290917fddf252ad1be2c89b69c2b068fc378daa952ba7f163c4a11628f55a4df523b3ef91620004da91620005cf565b60405180910390a35062000769565b6000620004f78284620005d8565b9392505050565b336000818152600a602090815260408083206001600160a01b038716808552925280832085905551919290917f8c5be1e5ebec7d5bd14f71427d1e84f3dd0314c0f7b2291e5b200ac8c7c3b9259062000559908690620005cf565b60405180910390a350600192915050565b610f148062002bb283390190565b6000602082840312156200058a578081fd5b81516001600160a01b0381168114620004f7578182fd5b6001600160a01b0391909116815260200190565b6001600160a01b0392831681529116602082015260400190565b90815260200190565b600082620005f457634e487b7160e01b81526012600452602481fd5b500490565b80825b60018086116200060d57506200063d565b81870482111562000622576200062262000753565b808616156200063057918102915b9490941c938002620005fc565b94509492505050565b6000620004f760001960ff8516846000826200066557506001620004f7565b816200067457506000620004f7565b81600181146200068d57600281146200069857620006cc565b6001915050620004f7565b60ff841115620006ac57620006ac62000753565b6001841b915084821115620006c557620006c562000753565b50620004f7565b5060208310610133831016604e8410600b841016171562000704575081810a83811115620006fe57620006fe62000753565b620004f7565b620007138484846001620005f9565b80860482111562000728576200072862000753565b02949350505050565b60008160001904831182151516156200074e576200074e62000753565b500290565b634e487b7160e01b600052601160045260246000fd5b61243980620007796000396000f3fe6080604052600436106102b25760003560e01c806395d89b4111610175578063d806d12f116100dc578063f1f3bca311610095578063f708a64f1161006f578063f708a64f146107c3578063f84ba65d146107e3578063f887ea4014610803578063fe9fbb8014610818576102b9565b8063f1f3bca314610763578063f2fde38b14610783578063f5cfec0a146107a3576102b9565b8063d806d12f146106c4578063dd62ed3e146106d9578063df20fd49146106f9578063e91f214e14610719578063e96fada21461072e578063f0b37c0414610743576102b9565b8063b210b06d1161012e578063b210b06d14610630578063b6a5d7de14610645578063bf56b37114610665578063c6d2577d1461067a578063ca33e64c1461068f578063d51ed1c8146106a4576102b9565b806395d89b41146105915780639d1944f5146105a6578063a4b45c00146105c6578063a51af4c5146105e6578063a8aa1b31146105fb578063a9059cbb14610610576102b9565b80632d48e89611610219578063658d4b7f116101d2578063658d4b7f146104f05780636ddd17131461051057806370a08231146105255780637d1db4a514610545578063893d20e81461055a5780638dd950021461057c576102b9565b80632d48e896146104395780632f54bf6e14610459578063313ce567146104795780633bb8a8d41461049b578063571ac8b0146104b05780635c85974f146104d0576102b9565b80631161ae391161026b5780631161ae391461038f57806318160ddd146103af578063201e7991146103c45780632375ce40146103e457806323b872dd146104045780632b112e4914610424576102b9565b806301339c21146102be5780630445b667146102d5578063048c7baf1461030057806304a66b481461032057806306fdde0314610340578063095ea7b314610362576102b9565b366102b957005b600080fd5b3480156102ca57600080fd5b506102d3610838565b005b3480156102e157600080fd5b506102ea610890565b6040516102f79190612306565b60405180910390f35b34801561030c57600080fd5b506102d361031b366004611fd2565b610896565b34801561032c57600080fd5b506102d361033b3660046120bd565b6108e4565b34801561034c57600080fd5b5061035561095a565b6040516102f791906121e2565b34801561036e57600080fd5b5061038261037d366004611f72565b61097d565b6040516102f791906121a2565b34801561039b57600080fd5b506103826103aa366004612044565b6109e7565b3480156103bb57600080fd5b506102ea6109fb565b3480156103d057600080fd5b506102d36103df366004612044565b610a01565b3480156103f057600080fd5b506102d36103ff366004612065565b610a31565b34801561041057600080fd5b5061038261041f366004611efe565b610a86565b34801561043057600080fd5b506102ea610b4a565b34801561044557600080fd5b506102d3610454366004612044565b610b93565b34801561046557600080fd5b50610382610474366004611eaa565b610c20565b34801561048557600080fd5b5061048e610c37565b6040516102f79190612359565b3480156104a757600080fd5b50610382610c3c565b3480156104bc57600080fd5b506103826104cb366004611eaa565b610c45565b3480156104dc57600080fd5b506102d36104eb36600461200a565b610c59565b3480156104fc57600080fd5b506102d361050b366004611f3e565b610c9f565b34801561051c57600080fd5b50610382610cef565b34801561053157600080fd5b506102ea610540366004611eaa565b610cf8565b34801561055157600080fd5b506102ea610d13565b34801561056657600080fd5b5061056f610d19565b6040516102f7919061213a565b34801561058857600080fd5b5061056f610d28565b34801561059d57600080fd5b50610355610d37565b3480156105b257600080fd5b506102d36105c136600461200a565b610d58565b3480156105d257600080fd5b506102d36105e1366004611ec6565b610d91565b3480156105f257600080fd5b5061056f610de4565b34801561060757600080fd5b5061056f610df3565b34801561061c57600080fd5b5061038261062b366004611f72565b610e02565b34801561063c57600080fd5b506102d3610e0f565b34801561065157600080fd5b506102d3610660366004611eaa565b610e3b565b34801561067157600080fd5b506102ea610e87565b34801561068657600080fd5b506102ea610e8d565b34801561069b57600080fd5b5061056f610e93565b3480156106b057600080fd5b506102ea6106bf36600461200a565b610ea2565b3480156106d057600080fd5b506102ea610ee2565b3480156106e557600080fd5b506102ea6106f4366004611ec6565b610fb9565b34801561070557600080fd5b506102d3610714366004611fb7565b610fe4565b34801561072557600080fd5b506102ea611020565b34801561073a57600080fd5b5061056f611034565b34801561074f57600080fd5b506102d361075e366004611eaa565b611043565b34801561076f57600080fd5b506102ea61077e366004611f9d565b611089565b34801561078f57600080fd5b506102d361079e366004611eaa565b6110cb565b3480156107af57600080fd5b506102d36107be366004612022565b611160565b3480156107cf57600080fd5b506102d36107de366004611f3e565b6111e4565b3480156107ef57600080fd5b506102d36107fe366004611f3e565b611314565b34801561080f57600080fd5b5061056f611364565b34801561082457600080fd5b50610382610833366004611eaa565b611373565b61084133611373565b6108665760405162461bcd60e51b815260040161085d906122e1565b60405180910390fd5b601a54156108865760405162461bcd60e51b815260040161085d90612297565b43601a5542601b55565b602b5481565b61089f33611373565b6108bb5760405162461bcd60e51b815260040161085d906122e1565b6020805460ff191694151594909417909355602291909155600060235560245560255543602655565b6108ed33611373565b6109095760405162461bcd60e51b815260040161085d906122e1565b600e859055600f849055601083905560118290556109338261092d8581898961139d565b9061139d565b601255601381905561094660048261237f565b6012541061095357600080fd5b5050505050565b60408051808201909152600881526729b0b332a2b0b93760c11b60208201525b90565b336000818152600a602090815260408083206001600160a01b038716808552925280832085905551919290917f8c5be1e5ebec7d5bd14f71427d1e84f3dd0314c0f7b2291e5b200ac8c7c3b925906109d6908690612306565b60405180910390a350600192915050565b6000826109f383610ea2565b119392505050565b60075490565b610a0a33611373565b610a265760405162461bcd60e51b815260040161085d906122e1565b601691909155601755565b610a3a33611373565b610a565760405162461bcd60e51b815260040161085d906122e1565b6002610a62838561237f565b11158015610a6f57508183115b610a7857600080fd5b601c92909255601d55601f55565b6007546001600160a01b0384166000908152600a60209081526040808320338452909152812054909114610b35576040805180820182526016815275496e73756666696369656e7420416c6c6f77616e636560501b6020808301919091526001600160a01b0387166000908152600a82528381203382529091529190912054610b109184906113a9565b6001600160a01b0385166000908152600a602090815260408083203384529091529020555b610b408484846113d5565b90505b9392505050565b600554600090610b8e90610b66906001600160a01b0316610cf8565b600454610b8890610b7f906001600160a01b0316610cf8565b600754906116c6565b906116c6565b905090565b610b9c33611373565b610bb85760405162461bcd60e51b815260040161085d906122e1565b6027546040516316a4744b60e11b81526001600160a01b0390911690632d48e89690610bea908590859060040161234b565b600060405180830381600087803b158015610c0457600080fd5b505af1158015610c18573d6000803e3d6000fd5b505050505050565b6000546001600160a01b038281169116145b919050565b600990565b60205460ff1681565b6000610c538260075461097d565b92915050565b610c6233611373565b610c7e5760405162461bcd60e51b815260040161085d906122e1565b6103e8600754610c8e919061237f565b811015610c9a57600080fd5b600855565b610ca833611373565b610cc45760405162461bcd60e51b815260040161085d906122e1565b6001600160a01b03919091166000908152600b60205260409020805460ff1916911515919091179055565b602a5460ff1681565b6001600160a01b031660009081526009602052604090205490565b60085481565b6000546001600160a01b031690565b6003546001600160a01b031681565b60408051808201909152600781526629a0a322a0a92760c91b602082015290565b610d6133611373565b610d7d5760405162461bcd60e51b815260040161085d906122e1565b620b71b08110610d8c57600080fd5b602955565b610d9a33611373565b610db65760405162461bcd60e51b815260040161085d906122e1565b601480546001600160a01b039384166001600160a01b03199182161790915560158054929093169116179055565b6028546001600160a01b031681565b6019546001600160a01b031681565b6000610b433384846113d5565b610e1833611373565b610e345760405162461bcd60e51b815260040161085d906122e1565b6000601e55565b610e4433610c20565b610e605760405162461bcd60e51b815260040161085d906122c1565b6001600160a01b03166000908152600160208190526040909120805460ff19169091179055565b601a5481565b601b5481565b6014546001600160a01b031681565b6000610c53610eaf610b4a565b601954610edc90610ed590600290610ecf906001600160a01b0316610cf8565b906116d2565b85906116d2565b90611391565b600042601b5462015180610ef69190612367565b1115610f2057610f19601354610edc6146506012546116d290919063ffffffff16565b905061097a565b42610f38601f54601e5461139d90919063ffffffff16565b1115610fb2576000610f5b42610b88601f54601e5461139d90919063ffffffff16565b90506000610f82601254610b88601d54610edc601c546012546116d290919063ffffffff16565b9050610fa9610fa0601f54610edc85856116d290919063ffffffff16565b6012549061139d565b9250505061097a565b5060125490565b6001600160a01b039182166000908152600a6020908152604080832093909416825291909152205490565b610fed33611373565b6110095760405162461bcd60e51b815260040161085d906122e1565b602a805460ff191692151592909217909155602b55565b6fffffffffffffffffffffffffffffffff81565b6015546001600160a01b031681565b61104c33610c20565b6110685760405162461bcd60e51b815260040161085d906122c1565b6001600160a01b03166000908152600160205260409020805460ff19169055565b600043601a54600161109b9190612367565b106110b5576013546110ae9060016116c6565b9050610c32565b81156110c3576110ae610ee2565b505060125490565b6110d433610c20565b6110f05760405162461bcd60e51b815260040161085d906122c1565b600080546001600160a01b0319166001600160a01b0383169081178255815260016020819052604091829020805460ff19169091179055517f04dba622d284ed0014ee4b9a6a68386be1a4c08a4913ae272de89199cc6861639061115590839061213a565b60405180910390a150565b61116933611373565b6111855760405162461bcd60e51b815260040161085d906122e1565b60045461119c9083906001600160a01b03166116de565b80156111e05742601e55601f546040517f39d2389ec5c1fa77b2c0d374bc61b6d7bd97ccba280fcdeb4e9c7644898d7c3a916111d791612306565b60405180910390a15b5050565b6111ed33611373565b6112095760405162461bcd60e51b815260040161085d906122e1565b6001600160a01b038216301480159061123057506019546001600160a01b03838116911614155b61123957600080fd5b6001600160a01b0382166000908152600d60205260409020805460ff191682158015919091179091556112d057602754604051630a5b654b60e11b81526001600160a01b03909116906314b6ca969061129990859060009060040161214e565b600060405180830381600087803b1580156112b357600080fd5b505af11580156112c7573d6000803e3d6000fd5b505050506111e0565b6027546001600160a01b0383811660009081526009602052604090819020549051630a5b654b60e11b815291909216916314b6ca9691610bea91869160040161214e565b61131d33611373565b6113395760405162461bcd60e51b815260040161085d906122e1565b6001600160a01b03919091166000908152600c60205260409020805460ff1916911515919091179055565b6018546001600160a01b031681565b6001600160a01b031660009081526001602052604090205460ff1690565b6000610b43828461237f565b6000610b438284612367565b600081848411156113cd5760405162461bcd60e51b815260040161085d91906121e2565b505050900390565b602c5460009060ff16156113f5576113ee848484611803565b9050610b43565b6113ff84836118a6565b6114076118eb565b156114145761141461193a565b61141c611d20565b1561142957611429611d7b565b6040805180820182526014815273496e73756666696369656e742042616c616e636560601b6020808301919091526001600160a01b03871660009081526009909152919091205461147b9184906113a9565b6001600160a01b0385166000908152600960205260408120919091556114a085611dc2565b6114aa57826114b5565b6114b5858585611de1565b6001600160a01b0385166000908152600960205260409020549091506114db908261139d565b6001600160a01b038086166000908152600960209081526040808320949094559188168152600d909152205460ff1661157f576027546001600160a01b0386811660009081526009602052604090819020549051630a5b654b60e11b815291909216916314b6ca969161155291899160040161214e565b600060405180830381600087803b15801561156c57600080fd5b505af192505050801561157d575060015b505b6001600160a01b0384166000908152600d602052604090205460ff16611610576027546001600160a01b0385811660009081526009602052604090819020549051630a5b654b60e11b815291909216916314b6ca96916115e391889160040161214e565b600060405180830381600087803b1580156115fd57600080fd5b505af192505050801561160e575060015b505b6027546029546040516001624d3b8760e01b031981526001600160a01b039092169163ffb2c4799161164491600401612306565b600060405180830381600087803b15801561165e57600080fd5b505af192505050801561166f575060015b50836001600160a01b0316856001600160a01b03167fddf252ad1be2c89b69c2b068fc378daa952ba7f163c4a11628f55a4df523b3ef836040516116b39190612306565b60405180910390a3506001949350505050565b6000610b4382846123be565b6000610b43828461239f565b602c805460ff19166001179055604080516002808252606082018352600092602083019080368337505060035482519293506001600160a01b03169183915060009061173a57634e487b7160e01b600052603260045260246000fd5b60200260200101906001600160a01b031690816001600160a01b031681525050308160018151811061177c57634e487b7160e01b600052603260045260246000fd5b6001600160a01b03928316602091820292909201015260185460405163b6f9de9560e01b815291169063b6f9de959085906117c2906000908690889042906004016121ad565b6000604051808303818588803b1580156117db57600080fd5b505af11580156117ef573d6000803e3d6000fd5b5050602c805460ff19169055505050505050565b6040805180820182526014815273496e73756666696369656e742042616c616e636560601b6020808301919091526001600160a01b03861660009081526009909152918220546118549184906113a9565b6001600160a01b038086166000908152600960205260408082209390935590851681522054611883908361139d565b6001600160a01b0384166000908152600960205260409020555060019392505050565b600854811115806118cf57506001600160a01b0382166000908152600c602052604090205460ff165b6111e05760405162461bcd60e51b815260040161085d9061226c565b6019546000906001600160a01b0316331480159061190c5750602c5460ff16155b801561191a5750602a5460ff165b8015610b8e575050602b5430600090815260096020526040902054101590565b602c805460ff19166001179055601654601754600091611959916109e7565b61196557600e54611968565b60005b9050600061198c6002610edc601254610edc86602b546116d290919063ffffffff16565b905060006119a582602b546116c690919063ffffffff16565b604080516002808252606082018352929350600092909160208301908036833701905050905030816000815181106119ed57634e487b7160e01b600052603260045260246000fd5b6001600160a01b039283166020918202929092010152600354825191169082906001908110611a2c57634e487b7160e01b600052603260045260246000fd5b6001600160a01b03928316602091820292909201015260185460405163791ac94760e01b81524792919091169063791ac94790611a7690869060009087903090429060040161230f565b600060405180830381600087803b158015611a9057600080fd5b505af1158015611aa4573d6000803e3d6000fd5b505050506000611abd82476116c690919063ffffffff16565b90506000611ad8611acf886002611391565b601254906116c6565b90506000611aed6002610edc8481878d6116d2565b90506000611b0a83610edc601054876116d290919063ffffffff16565b90506000611b2784610edc601154886116d290919063ffffffff16565b9050602760009054906101000a90046001600160a01b03166001600160a01b031663d0e30db0836040518263ffffffff1660e01b81526004016000604051808303818588803b158015611b7957600080fd5b505af193505050508015611b8b575060015b506015546040516000916001600160a01b031690617530908490611bae9061097a565b600060405180830381858888f193505050503d8060008114611bec576040519150601f19603f3d011682016040523d82523d6000602084013e611bf1565b606091505b5050905080611c125760405162461bcd60e51b815260040161085d90612235565b8915611d0957601860009054906101000a90046001600160a01b03166001600160a01b031663f305d71985308d600080601460009054906101000a90046001600160a01b0316426040518863ffffffff1660e01b8152600401611c7a96959493929190612167565b6060604051808303818588803b158015611c9357600080fd5b505af1158015611ca7573d6000803e3d6000fd5b50505050506040513d601f19601f82011682018060405250810190611ccc9190612090565b5050507f424db2872186fa7e7afa7a5e902ed3b49a2ef19c2f5431e672462495dd6b4506848b604051611d0092919061234b565b60405180910390a15b5050602c805460ff19169055505050505050505050565b6019546000906001600160a01b03163314801590611d415750602c5460ff16155b8015611d4f575060205460ff165b8015611d6a575043602554602654611d679190612367565b11155b8015610b8e57505060245447101590565b602454600454611d9491906001600160a01b03166116de565b43602655602454602354611da79161139d565b60238190556022541015611dc0576020805460ff191690555b565b6001600160a01b03166000908152600b602052604090205460ff161590565b6013546019546000918291611e139190610edc90611e0c906001600160a01b03898116911614611089565b86906116d2565b30600090815260096020526040902054909150611e30908261139d565b30600081815260096020526040908190209290925590516001600160a01b038716907fddf252ad1be2c89b69c2b068fc378daa952ba7f163c4a11628f55a4df523b3ef90611e7f908590612306565b60405180910390a3611e9183826116c6565b95945050505050565b80358015158114610c3257600080fd5b600060208284031215611ebb578081fd5b8135610b43816123eb565b60008060408385031215611ed8578081fd5b8235611ee3816123eb565b91506020830135611ef3816123eb565b809150509250929050565b600080600060608486031215611f12578081fd5b8335611f1d816123eb565b92506020840135611f2d816123eb565b929592945050506040919091013590565b60008060408385031215611f50578182fd5b8235611f5b816123eb565b9150611f6960208401611e9a565b90509250929050565b60008060408385031215611f84578182fd5b8235611f8f816123eb565b946020939093013593505050565b600060208284031215611fae578081fd5b610b4382611e9a565b60008060408385031215611fc9578182fd5b611f8f83611e9a565b60008060008060808587031215611fe7578081fd5b611ff085611e9a565b966020860135965060408601359560600135945092505050565b60006020828403121561201b578081fd5b5035919050565b60008060408385031215612034578182fd5b82359150611f6960208401611e9a565b60008060408385031215612056578182fd5b50508035926020909101359150565b600080600060608486031215612079578283fd5b505081359360208301359350604090920135919050565b6000806000606084860312156120a4578283fd5b8351925060208401519150604084015190509250925092565b600080600080600060a086880312156120d4578081fd5b505083359560208501359550604085013594606081013594506080013592509050565b6000815180845260208085019450808401835b8381101561212f5781516001600160a01b03168752958201959082019060010161210a565b509495945050505050565b6001600160a01b0391909116815260200190565b6001600160a01b03929092168252602082015260400190565b6001600160a01b039687168152602081019590955260408501939093526060840191909152909216608082015260a081019190915260c00190565b901515815260200190565b6000858252608060208301526121c660808301866120f7565b6001600160a01b03949094166040830152506060015292915050565b6000602080835283518082850152825b8181101561220e578581018301518582016040015282016121f2565b8181111561221f5783604083870101525b50601f01601f1916929092016040019392505050565b6020808252601b908201527f4572726f722073656e64696e6720424e4220746f2073656e6465720000000000604082015260600190565b602080825260119082015270151608131a5b5a5d08115e18d959591959607a1b604082015260600190565b60208082526010908201526f105b1c9958591e481b185d5b98da195960821b604082015260600190565b60208082526006908201526510a7aba722a960d11b604082015260600190565b6020808252600b908201526a085055551213d49256915160aa1b604082015260600190565b90815260200190565b600086825285602083015260a0604083015261232e60a08301866120f7565b6001600160a01b0394909416606083015250608001529392505050565b918252602082015260400190565b60ff91909116815260200190565b6000821982111561237a5761237a6123d5565b500190565b60008261239a57634e487b7160e01b81526012600452602481fd5b500490565b60008160001904831182151516156123b9576123b96123d5565b500290565b6000828210156123d0576123d06123d5565b500390565b634e487b7160e01b600052601160045260246000fd5b6001600160a01b038116811461240057600080fd5b5056fea2646970667358221220615259f49fc16f2650098f2fb9a83101d3fdd23105e56666cbdfbbcf4bd4671964736f6c634300080000336080604052600180546001600160a01b0319908116738076c74c5e3f5852037f31ff0093eeb8c8add8d3179091556002805490911673bb4cdb9cbd36b01bd1cbaebf2de08d9173bc095c1790556ec097ce7bc90715b34b9f1000000000600c55610e10600d55670de0b6b3a7640000600e5534801561007d57600080fd5b50604051610f14380380610f1483398101604081905261009c916100f6565b6001600160a01b0381166100c4577310ed43c718714eb63d5aa57b78b54704e256024e6100c6565b805b600380546001600160a01b03929092166001600160a01b0319928316179055600080549091163317905550610124565b600060208284031215610107578081fd5b81516001600160a01b038116811461011d578182fd5b9392505050565b610de1806101336000396000f3fe6080604052600436106100dd5760003560e01c8063ce7c2ac21161007f578063efca2eed11610059578063efca2eed146101fa578063f0fc6bca1461020f578063ffb2c47914610224578063ffd49c8414610244576100dd565b8063ce7c2ac2146101ae578063d0e30db0146101dd578063e2d2e219146101e5576100dd565b80632d48e896116100bb5780632d48e8961461014f5780633a98ef391461016f5780634fab0ae814610184578063997664d714610199576100dd565b806311ce023d146100e257806314b6ca961461010d57806328fd31981461012f575b600080fd5b3480156100ee57600080fd5b506100f7610259565b6040516101049190610ced565b60405180910390f35b34801561011957600080fd5b5061012d610128366004610bbd565b61025f565b005b34801561013b57600080fd5b506100f761014a366004610ba3565b610384565b34801561015b57600080fd5b5061012d61016a366004610c36565b610410565b34801561017b57600080fd5b506100f7610432565b34801561019057600080fd5b506100f7610438565b3480156101a557600080fd5b506100f761043e565b3480156101ba57600080fd5b506101ce6101c9366004610ba3565b610444565b60405161010493929190610cf6565b61012d610465565b3480156101f157600080fd5b506100f76106d8565b34801561020657600080fd5b506100f76106de565b34801561021b57600080fd5b5061012d6106e4565b34801561023057600080fd5b5061012d61023f366004610c06565b6106ef565b34801561025057600080fd5b506100f761080e565b600c5481565b6000546001600160a01b0316331461027657600080fd5b6001600160a01b0382166000908152600760205260409020541561029d5761029d82610814565b6000811180156102c357506001600160a01b038216600090815260076020526040902054155b156102d6576102d18261093f565b610309565b801580156102fb57506001600160a01b03821660009081526007602052604090205415155b1561030957610309826109a0565b6001600160a01b03821660009081526007602052604090205460085461033a91839161033491610aed565b90610b00565b6008556001600160a01b038216600090815260076020526040902081905561036181610b0c565b6001600160a01b0390921660009081526007602052604090206001019190915550565b6001600160a01b0381166000908152600760205260408120546103a95750600061040b565b6001600160a01b0382166000908152600760205260408120546103cb90610b0c565b6001600160a01b0384166000908152600760205260409020600101549091508082116103fc5760009250505061040b565b6104068282610aed565b925050505b919050565b6000546001600160a01b0316331461042757600080fd5b600d91909155600e55565b60085481565b600e5481565b60095481565b60076020526000908152604090208054600182015460029092015490919083565b6000546001600160a01b0316331461047c57600080fd5b6001546040516370a0823160e01b81526000916001600160a01b0316906370a08231906104ad903090600401610c57565b60206040518083038186803b1580156104c557600080fd5b505afa1580156104d9573d6000803e3d6000fd5b505050506040513d601f19601f820116820180604052508101906104fd9190610c1e565b6040805160028082526060820183529293506000929091602083019080368337505060025482519293506001600160a01b03169183915060009061055157634e487b7160e01b600052603260045260246000fd5b6001600160a01b039283166020918202929092010152600180548351921691839190811061058f57634e487b7160e01b600052603260045260246000fd5b6001600160a01b03928316602091820292909201015260035460405163b6f9de9560e01b815291169063b6f9de959034906105d590600090869030904290600401610c84565b6000604051808303818588803b1580156105ee57600080fd5b505af1158015610602573d6000803e3d6000fd5b50506001546040516370a0823160e01b81526000945061069693508692506001600160a01b03909116906370a0823190610640903090600401610c57565b60206040518083038186803b15801561065857600080fd5b505afa15801561066c573d6000803e3d6000fd5b505050506040513d601f19601f820116820180604052508101906106909190610c1e565b90610aed565b6009549091506106a69082610b00565b600955600854600c546106d0916106c7916106c19085610b2f565b90610b3b565b600b5490610b00565b600b55505050565b600b5481565b600a5481565b6106ed33610814565b565b6000546001600160a01b0316331461070657600080fd5b60045480610714575061080b565b6000805a905060005b848310801561072b57508381105b156108065783600f541061073f576000600f555b61077f6004600f548154811061076557634e487b7160e01b600052603260045260246000fd5b6000918252602090912001546001600160a01b0316610b47565b156107c4576107c46004600f54815481106107aa57634e487b7160e01b600052603260045260246000fd5b6000918252602090912001546001600160a01b0316610814565b6107d96107d25a8490610aed565b8490610b00565b92505a600f805491935060006107ee83610d7a565b919050555080806107fe90610d7a565b91505061071d565b505050505b50565b600d5481565b6001600160a01b0381166000908152600760205260409020546108365761080b565b600061084182610384565b9050801561093b57600a546108569082610b00565b600a5560015460405163a9059cbb60e01b81526001600160a01b039091169063a9059cbb9061088b9085908590600401610c6b565b602060405180830381600087803b1580156108a557600080fd5b505af11580156108b9573d6000803e3d6000fd5b505050506040513d601f19601f820116820180604052508101906108dd9190610be6565b506001600160a01b038216600090815260066020908152604080832042905560079091529020600201546109119082610b00565b6001600160a01b038316600090815260076020526040902060028101919091555461036190610b0c565b5050565b600480546001600160a01b039092166000818152600560205260408120849055600184018355919091527f8a35acfbc15ff81a39ae7d344fd709f28e8600b4aa8c65c6b64bfe7fe36bd19b90910180546001600160a01b0319169091179055565b600480546109b090600190610d63565b815481106109ce57634e487b7160e01b600052603260045260246000fd5b60009182526020808320909101546001600160a01b0384811684526005909252604090922054600480549290931692918110610a1a57634e487b7160e01b600052603260045260246000fd5b600091825260208083209190910180546001600160a01b0319166001600160a01b03948516179055918316815260059182905260408120546004805491939291610a6690600190610d63565b81548110610a8457634e487b7160e01b600052603260045260246000fd5b60009182526020808320909101546001600160a01b031683528201929092526040019020556004805480610ac857634e487b7160e01b600052603160045260246000fd5b600082815260209020810160001990810180546001600160a01b031916905501905550565b6000610af98284610d63565b9392505050565b6000610af98284610d0c565b6000610b29600c546106c1600b5485610b2f90919063ffffffff16565b92915050565b6000610af98284610d44565b6000610af98284610d24565b600d546001600160a01b03821660009081526006602052604081205490914291610b719190610d0c565b108015610b295750600e54610b8583610384565b1192915050565b80356001600160a01b038116811461040b57600080fd5b600060208284031215610bb4578081fd5b610af982610b8c565b60008060408385031215610bcf578081fd5b610bd883610b8c565b946020939093013593505050565b600060208284031215610bf7578081fd5b81518015158114610af9578182fd5b600060208284031215610c17578081fd5b5035919050565b600060208284031215610c2f578081fd5b5051919050565b60008060408385031215610c48578182fd5b50508035926020909101359150565b6001600160a01b0391909116815260200190565b6001600160a01b03929092168252602082015260400190565b600060808201868352602060808185015281875180845260a0860191508289019350845b81811015610ccd5784516001600160a01b031683529383019391830191600101610ca8565b50506001600160a01b039690961660408501525050506060015292915050565b90815260200190565b9283526020830191909152604082015260600190565b60008219821115610d1f57610d1f610d95565b500190565b600082610d3f57634e487b7160e01b81526012600452602481fd5b500490565b6000816000190483118215151615610d5e57610d5e610d95565b500290565b600082821015610d7557610d75610d95565b500390565b6000600019821415610d8e57610d8e610d95565b5060010190565b634e487b7160e01b600052601160045260246000fdfea2646970667358221220b15eb561116304bdc60516e35d0afdd41d7aecffa5b11bb774ac8b01711a498e64736f6c63430008000033",
  "linkReferences": {},
  "deployedLinkReferences": {}
}